:10149100424C5545544F4F54482052454356453AC6
:1014A1000057494649205445535400534552414938
:1014B1004C205445535400FF1CD9FF1CF7FF1E86D6
:1014C100FF1E4BFF1B4BFF1E57FF1E63FF12FEFF4C
:1014D1001E6FFF1798FF0F09FF126EFF1A23FF00FF
:1014E10006FF1EACFF1A56FF0568FF06EDFF06ED6D
:1014F100FF06EDFF06EDFF06EDFF1C98FF0AF0FF6A
:081501000AF0FF0AF0FF0AF0F6
:101C7700010900010A000C0C000000000000000030
:0D1C870000000000010800C100C101C18281
:101DB200C290D291C292C293D2B6121A89121CD97F
:081DC200750B121206ED80F80A
:03002300020E3991
:100E3900C0E0C0F0C083C082C0D075D000C000C07F
:0D0E490001C002C003C004C005C006C00700
:100E5600209803020EEEC29885992130011DC20129
:100E66007BFF7A147991E4FDFF1218BAAB217D015C
:100E7600E4FF121D31E52124D0F590E5217007D25B
:100E8600027509018062E509605EE521B4FF087517
:100E960008007509008051E5087043E521131354D5
:100EA6003F30E03A300207C2027F01121D67E5219A
:100EB600C3137BFF30E0157A1479A2E4FDFF121804
:100EC600BA7BFF7A187974121D1B800A7A1479ACE2
:100ED600E4FDFF1218BA7599233099FDC299AF083F
:080EE6000508740C2FF8A62189
:100EEE00D007D006D005D004D003D002D001D00058
:0B0EFE00D0D0D082D083D0F0D0E03202
:03000B00021E31A1
:0D1E3100D200758A00758C00C2A9C28C32E7
:101CD900758921758DFD758BFDD28EE4F587F58AA1
:0E1CE900F58C759850D288D2AFC2A8D2AC222A
:10174A00E50B640C7016D2A700D2A60000000000B8
:10175A00C2A70000000000C2A6000022E50B640F29
:10176A007016D29500D2940000000000C2950000C5
:10177A00000000C294000022D2A100D2A000000002
:0E178A000000C2A10000000000C2A00000226A
:10197C00E50B640C700EC2A700D2A600000000009C
:10198C00D2A78020E50B640F700EC29500D2940094
:10199C0000000000D295800CC2A100D2A000000073
:0919AC000000D2A100000000229D
:100FCB00E50B640C703BFEEFA806088002C333D818
:100FDB00FC30E704D2A78002C2A700D2A600000013
:100FEB000000C2A60EBE08DF0000D2A70000D2A6EA
:100FFB0000000030A704C2058002D205C2A6000083
:10100B0022E50B640F703BFEEFA806088002C3338A
:10101B00D8FC30E704D2958002C29500D294000030
:10102B00000000C2940EBE08DF0000D2950000D273
:10103B0094000000309504C2058002D205C29400D2
:10104B000022E4FEEFA806088002C333D8FC30E789
:10105B0004D2A18002C2A100D2A00000000000C2F5
:10106B00A00EBE08DF0000D2A10000D2A00000003D
:0D107B0030A104C2058002D205C2A0000011
:011088002245
:10150900E50B640C7022FED2A7FF00C2A600000002
:101519000000D2A60000EE25E0FE30A7010E000073
:101529000FBF08E6C2A68049E50B640F7022FED200
:1015390095FF00C2940000000000D2940000EE253F
:10154900E0FE3095010E00000FBF08E6C29480212D
:10155900E4FED2A1FF00C2A00000000000D2A0005A
:1015690000EE25E0FE30A1010E00000FBF08E6C223
:05157900A00000AF0618
:01157E00224A
:1016A500E50B640C7018200404C2A78002D2A700C1
:1016B5000000D2A60000000000C2A6000022E50B33
:1016C500640F7018200404C2958002D295000000B2
:1016D500D2940000000000C294000022200404C23D
:1016E500A18002D2A1000000D2A00000000000C22B
:0416F500A00000222F
:101D67008F80C2A5C2A37F0A7E00121C11D2A37F57
:091D77000A7E00121C11C2A32215
:101D80008F80D2A5C2A37F0A7E00121C11D2A37F2E
:091D90000A7E00121C11C2A322FC
:101A8900C2A47F38121D677F147E00121C117F0EBD
:101A9900121D677F147E00121C117F06121D677FBD
:101AA900147E00121C117F01121D677F147E000233
:021AB9001C11FE
:021D31008B35F0
:101D3300ED7007EF2480F5368005EF24C0F536AF4C
:091D430036121D67AF35021D8048
:0618BA008B3F8A408941CA
:1018C000ED7007EF2480F5428008BD0105EF24C0CC
:1018D000F542AF42121D67AB3FAA40A941120383F4
:1018E000FFD394004017121D8074012541F541E497
:0D18F0003540F5407F017E00121C1180DAAA
:0118FD0022C8
:1016F9008B4B8A4C894D8D4E7F01121D67AB4BAACE
:101709004CA94DE4FDFF1218BAE54E75F064842426
:1017190030FB7D01E4FF121D31E54E75F06484E56F
:10172900F075F00A842430FB7D017F01121D31E53B
:101739004E75F00A84E5F02430FB7D017F02021D1D
:01174900316E
:101B78008F4F8D508B5112174AAF4F120FCB200544
:101B880002C322AF50120FCB200502C322AF51125D
:0C1B98000FCB200502C32212197CD322BF
:101CB9008F3E8D3F12174AAF3E120FCB200502C34C
:101CC90022AF3F120FCB200502C32212197CD32267
:021BEF008F3E27
:101BF10012174AE53E04FF120FCB2005037F002296
:0F1C01001215098F3FD2041216A512197CAF3F9E
:011C100022B1
:101DCA00D2AFD2ACD2AB758920E4F587759850753D
:081DDA008DFD758BFDD28E22F8
:101C1100AC06AD07D3ED9400EC940040147A007B40
:101C210070EB1B70011AEB4A70F7ED1D70E61C801A
:011C3100E3CF
:011C3200228F
:0A1E9100AE071FEE60030080F72289
:0B1E7B003F065B4F666D7D077F6F40E8
:081089008F258E248D238C229B
:10109100E4F526E4F580E526B40800504D9010A54E
:1010A100F82828730210BD0210C10210C90210CD28
:1010B1000210D50210D90210E10210E5D2B480026B
:1010C100C2B4D2B5D2B68022D2B48002C2B4C2B503
:1010D100D2B68016D2B48002C2B4D2B5C2B6800AEA
:1010E100D2B48002C2B4C2B5C2B67F017E00121C66
:1010F10011E47B0AFAF9F8AF25AE24AD23AC221234
:1011010018FE747B2BF582741E3AF583E493F58007
:101111007F017E00121C11AF25AE24AD23AC22E469
:101121007B0AFAF9F81218FE8F258E248D238C2262
:0C1131000526E526C39408500302109424
:01113D00228F
:1018740041542B43495053454E443D302C310D0ABD
:101884000041542B43495053454E443D302C320DB6
:101894000A0041542B4349504D55583D310D0A001F
:1018A40041542B4349505345525645523D312C38EF
:0618B4003038300D0A007F
:061D15007BFF7A187985BE
:101D1B001203836010F5993099FDC299740129F96A
:061D2B00E43AFA80EB220D
:101BA4007FBC7E02121C117BFF7A187996121D1BD2
:101BB4007FE87E03121C117BFF7A1879A4121D1B87
:071BC4007FF47E01021C11F9
:101DF900AE077BFF7A187974121D1B8E993099FDF5
:031E0900C2992259
:101DE200AD07AC06121D158C993099FDC299EDF51F
:071DF200993099FDC299220E
:101650008F318E308D2F8C2E121D15AF31AE30ADE7
:101660002FAC2E78181205428F993099FDC299AF90
:1016700031AE30AD2FAC2E78101205428F993099D3
:10168000FDC299121D15AF31AE30AD2FAC2E7808CA
:101690001205428F993099FDC299E531FF8F99303B
:0516A00099FDC2992232
:061942008B398A3A893B53
:10194800E4FEAB39AA3AA93B8E8275830012039C48
:1019580060217BFF7A187974121D1BAB39AA3AA94A
:101968003B8E8275830012039CF5993099FDC299CC
:031978000E80CF0F
:01197B002249
:071EA500AE071FEE70FA22E8
:101C3300D2B700C2B77F50121EA5D2B77F05121EBE
:101C4300A520B704D2008002C2007F14121EA5D2C1
:021C5300B722B6
:101E0C00C2B70000D2B700A2B792037F0C121EA576
:021E1C00A2031F
:011E1E0022A1
:101D4C00E4FC121E0CE433FFC43333335480FEED39
:0A1D5C00C3134EFD0CBC08EAAF05EE
:011D6600225A
:021C5500AD07D9
:101C5700E4FCED54016006C2B77F018004C2B77F80
:0F1C67000B121EA5D2B700EDC313FD0CBC08E392
:011C7600224B
:0D1E3E00121C337FCC121C557F44021C5532
:1015ED00121C337FCC121C557FBE121C55121D4C84
:1015FD00AB07121D4C7553008F54E554755400F50F
:10160D0053AF03EF4254E4AC53AD541202C9E4FBA3
:10161D00FA7980783D12011E8F258E248D238C2220
:10162D00E4FFFE7D207C41AB25AA24A923A822122C
:10163D00011EE4FBFAF9783F12002D1203028E53BE
:02164D008F54B8
:01164F002278
:1011DE008E228F23E55270047B2B80027B2D7D01A6
:1011EE007F01121D31AE22AF237C037DE81203DB9B
:1011FE00EF2430FBE4FD7F02121D31AE22AF237CC3
:10120E00037DE81203DB7E007F64CFCDCFCECCCE44
:10121E001203DBEF2430FBE4FD7F03121D31AE22FF
:10122E00AF237C007D641203DB7E007F0ACFCDCF1F
:10123E00CECCCE1203DBEF2430FBE4FD7F04121D77
:10124E00317B2EE4FD7F05121D31AE22AF237C00D3
:10125E007D0A1203DBED2430FBE4FD7F06021D3117
:1019EE00C2967F007E007D007C002097FDE4FBD236
:1019FE009630970DEF2401FFE43EFEE43DFDE43CFE
:101A0E00FCC29678011205550BBB18E3D296ED6415
:041A1E0080FDC296EF
:011A220022A1
:101D99008F228D2312174A7FA6120FCBAF22120F63
:091DA900CBAF23120FCB02197C11
:101AED007D0B7F31121D997D087F2C121D997D086C
:101AFD007F2D121D997D807F2E121D99E4FD7F1E75
:101B0D00121D99E4FD7F1F121D997D057F20021D79
:011B1D00992E
:10182D0012174A7FA6120FCB7F32120FCB12174A17
:10183D007FA7120FCBE4F52212150974432522F868
:10184D00A607E522B40504D2048002C2041216A52F
:10185D000522E522C3940640DF12197C7F057E0028
:06186D00121C11E4F54914
:011873002252
:100BC3008E228F23C3E52264809480500FC3E49563
:100BD30023F523E49522F5227B2D80027B20E4FD7F
:100BE3007F0A121D31AC22AD23EC1202C97B9A7A23
:100BF300997979784012011E1203028E228F237B8A
:100C030058E4FD7F08121D317B3AE4FD7F09121D74
:100C130031AE22AF237C277D101204308C228D232A
:100C2300AE22AF237C037DE8120430EF2430FBE4D3
:100C3300FD7F0B121D317B2EE4FD7F0C121D31AEA7
:100C430022AF237C037DE81204308C228D23AE2255
:100C5300AF237C007D64120430EF2430FBE4FD7F7E
:100C63000D121D31AE22AF237C007D641204308C43
:100C7300228D23AE22AF237C007D0A120430EF24A1
:100C830030FBE4FD7F0E121D317B20E4FD7F0F025C
:020C93001D3111
:100C95008E228F23C3E52264809480500FC3E49590
:100CA50023F523E49522F5227B2D80027B207D010F
:100CB5007F02121D31AC22AD23EC1202C97B9A7A58
:100CC500997979784012011E1203028E228F237BB7
:100CD500597D01E4FF121D317B3A7D017F01121D13
:100CE50031AE22AF237C277D101204308C228D2358
:100CF500AE22AF237C037DE8120430EF2430FB7D68
:100D0500017F03121D317B2E7D017F04121D31AE43
:100D150022AF237C037DE81204308C228D23AE2282
:100D2500AF237C007D64120430EF2430FB7D017F0E
:100D350005121D31AE22AF237C007D641204308C78
:100D4500228D23AE22AF237C007D0A120430EF24CE
:100D550030FB7D017F06121D317B207D017F07025F
:020D65001D313E
:100D67008E228F23C3E52264809480500FC3E495BD
:100D770023F523E49522F5227B2D80027B207D013C
:100D87007F0A121D31AC22AD23EC1202C97B9A7A7D
:100D9700997979784012011E1203028E228F237BE4
:100DA7005A7D017F08121D317B3A7D017F09121D93
:100DB70031AE22AF237C277D101204308C228D2385
:100DC700AE22AF237C037DE8120430EF2430FB7D95
:100DD700017F0B121D317B2E7D017F0C121D31AE61
:100DE70022AF237C037DE81204308C228D23AE22B0
:100DF700AF237C007D64120430EF2430FB7D017F3C
:100E07000D121D31AE22AF237C007D641204308C9D
:100E1700228D23AE22AF237C007D0A120430EF24FB
:100E270030FB7D017F0E121D317B207D017F0F027C
:020E37001D316B
:101B1E00E544FE7C00E42543FFEC3EFE120BC3E5DC
:101B2E0046FE7C00E42545FFEC3EFE120C95E54892
:0D1B3E00FE7C00E42547FFEC3EFE020D6733
:10113E00F0909090909090F0606060606060606061
:10114E00F01010F0808080F0F01010F0101010F001
:10115E00A0A0A0F020202020F08080F0101010F031
:10116E00F08080F0909090F0F01010101010101091
:10117E00F09090F0909090F0F09090F0101010F0A1
:10118E000F0909090909090F0606060606060606CD
:10119E000F01010F0808080F0F01010F0101010FC8
:1011AE000A0A0A0F020202020F08080F0101010FBC
:1011BE000F08080F0909090F0F01010101010101B3
:1011CE000F09090F0909090F0F09090F0101010F75
:10000E00EF1313543F24FF92A7EFC3131392A6EFDF
:04001E001392A52272
:04141800AB07AA066E
:10141C007C007D0A1203DB8F24AE02AF037C007DBF
:10142C000A1203DB8D25E4F523E4F522AF2212002A
:10143C000EE52575F008A4248EF582E43411F583AD
:10144C00E5822522F582E43583F583E493FFE524D8
:10145C0075F008A4243EF582E43411F583E5822569
:10146C0022F582E43583F583E4932FF5807F141203
:10147C001E910522E522C3940840B10523E523C340
:04148C00940A40A5D9
:011490002239
:101E1F008F2212174A7F46120FCBAF22120FCB021F
:021E2F00197C1C
:0A1E9B007F01121E1F7F10021E1FA0
:1019B50012174A7F47120FCBE4F52212150974431B
:1019C5002522F8A607E522B40304D2048002C20446
:1019D5001216A50522E522C3940340DFE4F546125D
:0919E500197C7F057E00021C1133
:100A0800E543FE7C00E42544F523EC3EF522FCADED
:100A1800231202C97B9A7A997999783F1202271290
:100A280003028E228F23EE3395E0FDFC7BA07A86AD
:100A3800790178001218FEAE02AF038E228F237C54
:100A4800277D10120430EF2430FB7D01E4FF121DD6
:100A580031AE22AF237C277D101204308C228D23E7
:100A6800AE22AF237C037DE8120430EF2430FB7DF7
:100A7800017F01121D31AE22AF237C037DE81204F1
:100A8800308C228D23AE22AF237C007D641204308B
:100A9800EF2430FB7D017F02121D31AE22AF237C93
:100AA800007D641204308C228D23AE22AF237C009B
:100AB8007D0A120430EF2430FB7D017F03121D31C3
:100AC800AE22AF237C007D0A120430ED2430FB7D7A
:100AD800017F04121D317B4C7D017F05121D317B86
:080AE800587D017F06021D315B
:10091E00504320444953504C415920202020202040
:10092E000054656D70657261747572653A0050435E
:10093E0020444953504C41590044697374616E63AD
:10094E00653A006C696768743A0048756D69646948
:10095E0074793A00486561743A005669627261743E
:10096E00696F6E3A004C6967687420696E74656EC3
:10097E00736974793A00496E6672617265642072A9
:10098E006563656976653A004144584C33343520C9
:10099E00005765696768743A002A2A4D5132202043
:1009AE0020002A2A4D5133202020002A2A4D51346E
:1009BE00202020002A2A4D5135202020002A2A4DA1
:1009CE005131333520202000444154413A005741E3
:1009DE00524E494E4720202020202020202000204B
:1009EE002020202020202000566F6963653A005198
:0A09FE005549455420202020200018
:031C9400015500F7
:101BCB008F3E7BFF7A09791EE4FDFF1218BAE50CF4
:101BDB00C31320E009853E993099FDC29922AF3E8F
:041BEB00121DF922AC
:101ABB008E228F237BFF7A09791EE4FDFF1218BA61
:101ACB00E50CC31320E013E522F5993099FDC2997B
:101ADB00E523F5993099FDC29922AF23AE22121D51
:021AEB00E222F5
:0617E4007B007A0079434E
:1017EA008B358A3689377BFF7A09791EE4FDFF1229
:0917FA0018BAE50CC31320E0202D
:10180300E4F538AB35AA36A93785388275830012DB
:10181300039CFF6014F5993099FDC299053880E364
:0A182300AB35AA36A937121942228C
:10157F008F2D8E2C8D2B8C2A7BFF7A09791EE4FD03
:10158F00FF1218BAE50CC31320E047AF2DAE2CADF8
:10159F002BAC2A78181205428F993099FDC299AF5A
:1015AF002DAE2CAD2BAC2A78101205428F993099A5
:1015BF00FDC299AF2DAE2CAD2BAC2A780812054287
:1015CF008F993099FDC299E52DFF8F993099FDC202
:0E15DF009922AF2DAE2CAD2BAC2A1216502245
:101CF700740E250DF8E675F064A4FF740F250DF832
:0E1D0700E67C002FFFEC35F0FEE4FD021089B3
:0B1E8600740E250DF8E6F590F599228A
:0C1E4B00740E250DF8E6FF7E000214184E
:101B4B00740E250DF8E675F064A4FFAEF0740F2546
:101B5B000DF8E62408FDEFA805088005C333CE3346
:0D1B6B00CED8F9FFEE3395E0FDFC021089A5
:0C1E5700C2917F0A7E00121C11D2912261
:0C1E6300D2937F0A7E00121C11C2932251
:1012FE007F5A121E91E555B40800400302138B90DD
:10130E001314F828287302132C0213380213440204
:10131E00135002135C021368021374021380C294FA
:10132E00D295D296D29775550122C294C295D29675
:10133E00D29775550222D294C295D296D2977555F0
:10134E000322D294C295C296D29775550422D29496
:10135E00D295C296D29775550522D294D295C29641
:10136E00C29775550622D294D295D296C2977555CC
:0E137E000722C294D295D296C297E4F555226A
:0C1E6F00D2927F0A7E00121C11C2922247
:1017980030021EC2027F01121D67E50C7BFF20E0AC
:1017A800067A09792F80047A09793CE4FDFF12183A
:1017B800BA121E3E1215ED8E538F54E50C20E0141C
:1017C8001211DED3E554945EE55394014003C291AF
:0C17D80022D29122AF54AE53121ABB2251
:100F090030021EC2027F01121D67E50C7BFF20E043
:100F1900067A09794780047A09793CE4FDFF1218B9
:100F2900BAC2B5D2B57F147E00121C11C2B5C2B4C3
:100F390030B4FDC200D28CD2A920B4FDC28CC2A9A2
:100F4900200023AF8CEFFEAD8A7C00E42DFFEC3E40
:100F5900FE7DAC1203C97C277D101203DBEF24024E
:100F6900F554E43EF553E50C20E04FAE53AF547C05
:100F7900007D641203DBEF2430FB7D017F01121D2C
:100F890031AE53AF547C007D641203DB7E007F0ACF
:100F9900CFCDCFCECCCE1203DBEF2430FB7D017F4A
:100FA90002121D31AE53AF547C007D0A1203DBEDF2
:100FB9002430FB7D017F03021D31AF54AE53121A59
:020FC900BB2249
:100AF000200203020B79C2027F01121D67E50B245D
:100B0000E8602414603B1460522403706C7D407FC5
:100B100090121CB9E50C7BFF20E0067A0979518020
:100B2000527A09793C804C7D417F90121CB9E50CCA
:100B30007BFF20E0067A09795880047A09793C80A5
:100B4000327D427F90121CB9E50C7BFF20E0067AD3
:100B500009796280047A09793C80187D437F90127C
:100B60001CB9E50C7BFF20E0067A09796880047ADD
:100B700009793CE4FDFF1218BA7F90121BEF8F53E6
:100B8000E50C20E038E55375F064842430FB7D01EA
:100B90007F07121D31E55375F06484E5F075F00AA6
:100BA000842430FB7D017F08121D31E55375F00A66
:100BB00084E5F02430FB7D017F09021D31AF531223
:030BC0001BCB222A
:101A230030021EC2027F01121D67E50C7BFF20E01E
:101A3300067A09797380047A09793CE4FDFF121868
:101A4300BA121E9B1219B5E50C20E003020A081214
:031A530017E42273
:03000600D2012202
:031EAC00D2A82297
:03000300020815DB
:0D081500C0E0C0F0C083C082C0D075D0002C
:1008220075340030021EC2027F01121D67E50C7B87
:10083200FF20E0067A09798480047A09793CE4FD94
:10084200FF1218BAC2A87FC8121E9130B203020961
:100852001320B2077F0D121E9180F6753200753398
:100862000030B2077F0D121E9180F620B2077F0D75
:10087200121E9180F630B2117F0D121E910534E5E1
:1008820034C3941E40EF02091374432532F8C000AA
:10089200E6FFC313D000F6E534C39408400974435D
:1008A2002532F8E64480F67534000533E533C39407
:1008B2000840AE0532E532C3940440A2E546F46531
:1008C20045704EE545540FF548E545C4540FF549CA
:1008D200E548D3940940047437800274302548F502
:1008E20048E549D39409400474378002743025499D
:1008F200F549754A00E50C20E014AB49E4FD7F029E
:10090200121D31AB48E4FD7F03121D318003121723
:01091200E400
:0B091300D0D0D082D083D0F0D0E032F2
:101A560030021EC2027F01121D67E50C7BFF20E0EB
:101A6600067A09799680047A09793CE4FDFF121812
:101A7600BA121AED12182DE50C20E003021B1E12F5
:031A860017E42240
:1005680030021EC2027F01121D67E50C7BFF20E0EE
:10057800067A09799F80047A09793CE4FDFF12180C
:10058800BA1219EE8F258E248D238C228F298E285E
:100598008D278C26E47B64FAF9F81204A28F258E45
:1005A800248D238C22E41202C47BB87A1E79E57864
:1005B800401202277BCD7ACC794C783D12002D125F
:1005C80003028F298E288D278C26C3E529951BF5D4
:1005D80029E528951AF528E5279519F527E526959B
:1005E80018F526E50CAF29AE28AD27AC2630E00378
:1005F8000206E97BA07A86790178001204A2AC0091
:10060800AD01AE02AF038F298E288D278C26E47B9F
:10061800107A27F9F81204A2EF2430FB7D01E4FFD9
:10062800121D31AF29AE28AD27AC26E47B107A27FE
:10063800F9F81204A2AC00AD01AE02AF038F298E07
:10064800288D278C26E47BE87A03F9F81204A2EFB8
:100658002430FB7D017F01121D31AF29AE28AD2763
:10066800AC26E47BE87A03F9F81204A2AC00AD01E9
:10067800AE02AF038F298E288D278C26E47B64FA7F
:10068800F9F81204A2EF2430FB7D017F02121D311C
:10069800AF29AE28AD27AC26E47B64FAF9F812043A
:1006A800A2AC00AD01AE02AF038F298E288D278C36
:1006B80026E47B0AFAF9F81204A2EF2430FB7D0144
:1006C8007F03121D31E47B0AFAF9F8AF29AE28AD91
:1006D80027AC261204A2EB2430FB7D017F04021D07
:0406E8003112157F37
:0106EC0022EB
:1006ED00200203020770C2027F01121D67E50B2471
:1006FD00EE60201460301460401460502404706368
:10070D00E50C7BFF20E0067A0979A780507A0979FC
:10071D003C804AE50C7BFF20E0067A0979B0800425
:10072D007A09793C8037E50C7BFF20E0067A097960
:10073D00B980047A09793C8024E50C7BFF20E00622
:10074D007A0979C280047A09793C8011E50C7BFF26
:10075D0020E0067A0979CB80047A09793CE4FDFF23
:10076D001218BAE50B24EE600F146010146011140A
:10077D00600424047015800C7D41800A7D42800642
:10078D007D4380027D407F90121CB97F90121BEF3C
:10079D008F53E50C20E06BE55375F064842430F540
:1007AD0043E55375F06484E5F075F00A842430F563
:1007BD0044E55375F00A84E5F02430F545E4F5463B
:1007CD007BFF7A0979D6FD7F081218BA7B007A0073
:1007DD007943E4FD7F0D1218BAE553D394287BFFBE
:1007ED0040107A0979DC7D01E4FF1218BAD290C26B
:1007FD0091227A0979ED7D01E4FF1218BAC290D2E7
:08080D009122AF53121BCB2214
:101C98007F0A7E00121C1120B614D2B6C2917F149E
:101CA8007E00121C11D2917F147E00021C11D29169
:011CB8002209
:10126E0030021EC2027F01121D67E50C7BFF20E0DB
:10127E00067A0979F680047A09793CE4FDFF1218A2
:10128E00BAE4F5227D417F90121CB97F90121BEFBC
:10129E008F230522E522C3940A40E97F90121BEFAB
:1012AE008F53E4F522E55375F00A84E5F02430FF00
:1012BE0074432522F8A607E55375F00A84F5530505
:1012CE0022E522B404DFE50C20E01FE523F465538C
:1012DE00600C7B007A007943E4FD7F0680097BFF7A
:0F12EE007A0979FDE4FDFF0218BAAF53121BCB4A
:0112FD0022CE
:1000260002036EE86480F8E933E83360110460F097
:10003600ED33EC337009E8FCE9FDEAFEEBFF220440
:1000460060DED3EB9FEA9EE99DE8C2E78CF0C2F73B
:1000560095F0400CE8CCF8E9CDF9EACEFAEBCFFB07
:1000660012033985D0F05804700320D5B3E8047024
:10007600075002B2D502037892D5EC0460F7E4CCBF
:10008600C0E0C398F8603B94186008400DD0E0FBD0
:10009600020350E4FBFAC9FC8028E830E406E4C910
:1000A600FBE4CAFCE830E305E4C9CACBFCE8540724
:1000B6006010F8C3E913F9EA13FAEB13FBEC13FC2F
:1000C600D8F130F52FC3E49CFCEF9BFFEE9AFEEDD2
:1000D60099FDD0E0FBEF4E4D4C701222DB0302037C
:1000E60075EC2CFCEF33FFEE33FEED33FDED30E720
:1000F600EB020350EF2BFFEE3AFEED39FDD0E0FBAD
:1001060050130BBB0003020378ED13FDEE13FEEF55
:0801160013FFEC13FC0203507F
:10011E00EC4D6011E8497017ED33EC3304600DE4DB
:10012E00FCFFFEFD22E933E8330470F802036E1281
:10013E00033958046009E4CC248150062850090282
:10014E000378284003020375C0E0EB4A7044B9807F
:10015E0006D0E0FB020364EF4E701CBD8008EBFF7F
:10016E00EAFEE9FD80EBE98DF0A4FEE5F002020760
:10017E00E9CDF9EAFEEBFFEF89F0A4FCE5F0CE89BC
:10018E00F0A42EFFE435F0CD89F0A42DFEE435F079
:10019E008067EF4E7005BD80D780C3EF8BF0A4ACA7
:1001AE00F0EE8BF0A42CFCE435F0F8EF8AF0A42CE2
:1001BE00E5F038FCE433CB8DF0A42CFCE5F03BF8F5
:1001CE00EE8AF0A42CFCE5F038F8E433CF89F0A4E5
:1001DE002CFCE5F038CF3400CE89F0A42FFFE5F0EB
:1001EE003EFEE433C98DF0A42EFEE5F039CD8AF043
:1001FE00A42FFFE5F03EFEE43DFD33D0E0FB5007BB
:10020E000BBB000F020378EC2CFCEF33FFEE33FE3A
:06021E00ED33FD02035068
:10022400020378EC5D046005E85904700302036E70
:10023400120339580460F6EC4860F2EC7004FDFED9
:10024400FF22C860DB2481C85009C39860025006AD
:100254000203759850CAF582E9294B4A7005AB82AE
:1002640002036475F0007C1A7880C3EF9BEE9AED6C
:1002740099400DC3EF9BFFEE9AFEED99FDE842F025
:10028400DC23ACF0D0E0FFD0E0FED0E0FDAB822078
:10029400E7101BEB60BAEC2CFCEF33FFEE33FEED02
:1002A40033FD020350E803F830E705C0F075F000B1
:1002B400EF2FFFEE33FEED33FD40B830E7C280AAE6
:1002C40075F020800E75F010800575F0087D007EB5
:1002D400007F003392D530D503120534EC3340103F
:1002E400EF33FFEE33FEED33FDEC33FCD5F0ED22BE
:0E02F400E5F0247EA2D513CC92E7CDCEFF22FA
:10030200EDD2E7CD33EC3392D524814006E4FFFEF3
:10031200FDFC22FCE4CFCECDCC24E0501174FF8052
:10032200EDC3CC13CCCD13CDCE13CECF13CF0470EF
:07033200F030D5DE020534B6
:10033900E9D2E7C933E833F892D5EDD2E7CD33EC0A
:0703490033FC5002B2D52283
:10035000EC30E7100FBF000C0EBE00080DBD00040E
:100360000BEB6014A2D5EB13FCED92E7FD2274FFBA
:10037000FCFDFEFF22E480F8A2D574FF13FC7D8013
:03038000E480EF27
:0300000002138C5C
:0C138C00787FE4F6D8FD7581550213D37C
:10038300BB010689828A83E0225002E722BBFE0278
:09039300E32289828A83E49322AB
:10039C00BB010CE58229F582E5833AF583E0225016
:1003AC0006E92582F8E622BBFE06E92582F8E22260
:0D03BC00E58229F582E5833AF583E493227A
:1003C900EF8DF0A4A8F0CF8CF0A428CE8DF0A42E48
:0203D900FE2202
:1003DB00BC000BBE0029EF8DF084FFADF022E4CC06
:1003EB00F875F008EF2FFFEE33FEEC33FCEE9DECCF
:1003FB00984005FCEE9DFE0FD5F0E9E4CEFD22ED15
:10040B00F8F5F0EE8420D21CFEADF075F008EF2F5E
:10041B00FFED33FD4007985006D5F0F222C398FD4F
:05042B000FD5F0EA22EC
:10043000C2D5EC30E709B2D5E4C39DFDE49CFCEEE7
:1004400030E715B2D5E4C39FFFE49EFE1203DBC381
:10045000E49DFDE49CFC80031203DB30D507C3E47C
:060460009FFFE49EFE2256
:1004660075F008758200EF2FFFEE33FECD33CDCC4D
:1004760033CCC58233C5829BED9AEC99E5829840D0
:100486000CF582EE9BFEED9AFDEC99FC0FD5F0D6AD
:10049600E4CEFBE4CDFAE4CCF9A88222B800C1B9D7
:1004A6000059BA002DEC8BF084CFCECDFCE5F0CB15
:1004B600F97818EF2FFFEE33FEED33FDEC33FCEB4E
:1004C60033FB10D703994004EB99FB0FD8E5E4F909
:1004D600FA227818EF2FFFEE33FEED33FDEC33FCF6
:1004E600C933C910D7059BE99A4007EC9BFCE99AEA
:1004F600F90FD8E0E4C9FAE4CCFB2275F010EF2F2F
:10050600FFEE33FEED33FDCC33CCC833C810D7072E
:100516009BEC9AE899400AED9BFDEC9AFCE899F869
:0E0526000FD5F0DAE4CDFBE4CCFAE4C8F922FC
:1018FE00C2D5E830E70FB2D5E4C39BFBE49AFAE415
:10190E0099F9E498F8EC30E717B2D51219341204AD
:10191E00A2E4C39BFBE49AFAE499F9E498F88003F5
:10192E001204A230D50DE4C39FFFE49EFEE49DFD9C
:04193E00E49CFC2207
:0E053400C3E49FFFE49EFEE49DFDE49CFC22D8
:10054200E8600FECC313FCED13FDEE13FEEF13FF97
:03055200D8F122BB
:10055500E8600FEFC333FFEE33FEED33FDEC33FC04
:03056500D8F122A8
:10139800021DB2E493A3F8E493A34003F68001F29C
:1013A80008DFF48029E493A3F85407240CC8C33356
:1013B800C4540F4420C8834004F456800146F6DF25
:1013C800E4800B0102040810204080901C77E47E22
:1013D800019360BCA3FF543F30E509541FFEE4931A
:1013E800A360010ECF54C025E060A840B8E493A3E1
:1013F800FAE493A3F8E493A3C8C582C8CAC583CA0C
:10140800F0A3C8C582C8CAC583CADFE9DEE780BEC3
:011C9700004C
:00000001FF
