:0F060E00010A00010800010B00010C00010900A6
:1005AD00758920758DFD758BFDD28EC29FD29ED221
:0605BD009CD2AFD2AC227B
:1005D900E4F5301205AD1200007F0A7E001205090C
:0205E90080F49C
:03002300020026B2
:10002600C0E0C0F0C083C082C0D075D000C000C0A0
:0D00360001C002C003C004C005C006C00721
:10004300309877C29885990C7F057E001205098543
:100053000C993099FDC299E50C7017E50A600AE521
:10006300087006F50AF50B8013E50A700F750A018F
:10007300800A750801E50A6003750B01E50B603A18
:10008300E50CF4600CAF090509740D2FF8A60C807C
:1000930029750900750800750A00E4FF7599FF309A
:1000A30099FDC2990FBF05F47F00740D2FF8E6F593
:0A00B300993099FDC2990FBF0AF0C1
:1000BD00D007D006D005D004D003D002D001D00097
:0B00CD00D0D0D082D083D0F0D0E03241
:0D061E00A2039200E51E451F24FF92022258
:1005C300D20000D2027F0512062BC2007F0512065D
:0605D3002BC20200002211
:1005FD00C20000D2027F0512062BD2007F04020634
:01060D002BC1
:02035E008F21ED
:10036000E4F522AF22E521A807088002C333D8FCB8
:1003700030E704D2008002C20000D2027F051206DC
:100380002BC2020522E522C3940840D77F02120641
:100390002BD2007F0212062BD2027F0312062B30D3
:0F03A0000004C2018002D201C2027F0202062BBA
:10042E00E4F523D200F52400C2027F0512062BD27A
:10043E00027F0212062BE52325E0F523300002058C
:10044E00237F0212062B0524E524C3940840D8C24C
:08045E00027F0212062BAF23FE
:010466002273
:10052B00200404C2008002D2007F0312062BD202E9
:0C053B007F0512062BC2027F0202062B75
:100562008F80C2A5C2A37F0A7E00120509D2A37F93
:090572000A7E00120509C2A32251
:10057B008F80D2A5C2A37F0A7E00120509D2A37F6A
:09058B000A7E00120509C2A32238
:10046700C2A47F381205627F147E001205097F0E31
:100477001205627F147E001205097F061205627F4E
:10048700147E001205097F011205627F147E0002A7
:02049700050955
:020547008B2502
:10054900ED7007EF2480F5268005EF24C0F526AF6E
:0905590026120562AF2502057BA4
:0603AF008B178A18891962
:1003B500ED7007EF2480F51A8008BD0105EF24C014
:1003C500F51AAF1A120562AB17AA18A919120594E6
:1003D500FFD39400401712057B74012519F519E424
:0D03E5003518F5187F017E0012050980DA39
:0103F20022E8
:1004C500EF14600A14600B14600C2403800C7D414A
:1004D500800A7D4280067D4380027D407F90120028
:0204E5000322F0
:100499008F1B8D1C8B1D1205C3AF1B12035E20051C
:1004A90002C322AF1C12035E200502C322AF1D1234
:0C04B900035E200502C3221205FDD322C1
:100003008F278D281205C3AF2712035E200502C375
:1000130022AF2812035E200502C3221205FDD3225C
:0204E7008F295B
:1004E9001205C3E52904FF12035E2005037F0022DC
:0F04F90012042E8F2AD20412052B1205FDAF2AF2
:0105080022D0
:10050900AC06AD07D3ED9400EC940040147A007B5F
:100519006EEB1B70011AEB4A70F7ED1D70E61C803B
:01052900E3EE
:01052A0022AE
:0A062B00AE071FEE60030080F72207
:1003F3005741524E494E47202020202020202020C4
:100403000046524F4D205132005448455245204931
:100413005320534146450046524F4D20513300541B
:0B04230048455245204953204F4B0034
:03063500D293223B
:10016400E4F52B7F901204E78F2BE52BD3943C40CE
:100174003D7BFF7A0379F37D01E4FF1203AF7BFF3C
:100184007A0479047D01E4FF1203AFD290D292C2C3
:10019400917F647E00120509D2917F647E0012056E
:1001A40009C2917F647E00120509D2918013C29224
:1001B400C290D2917BFF7A04790C7D01E4FF120393
:0901C400AF852B993099FDC29919
:0101CD00220F
:1001CE00E4F52C7F901204E78F2CE52CD394284075
:1001DE003A7BFF7A0379F3E4FDFF1203AF7BFF7ADC
:1001EE0004791A7D01E4FF1203AFD290C2917F64AD
:1001FE007E00120509D2917F647E00120509C2911C
:10020E007F647E00120509D2918010C290D2917B3C
:10021E00FF7A047922E4FDFF1203AF852C99309901
:03022E00FDC29975
:0102310022AA
:10023200E4F52D7F901204E78F2DE52DD39428400D
:100242003A7BFF7A0379F3E4FDFF1203AF7BFF7A77
:1002520004791A7D01E4FF1203AFD290C2917F6448
:100262007E00120509D2917F647E00120509C291B7
:100272007F647E00120509D2918010C290D2917BD8
:10028200FF7A047922E4FDFF1203AF852D9930999C
:03029200FDC29911
:010295002246
:10029600E4F52E7F901204E78F2EE52ED3942840A6
:1002A6003A7BFF7A0379F3E4FDFF1203AF7BFF7A13
:1002B60004791A7D01E4FF1203AFD290C2917F64E4
:1002C6007E00120509D2917F647E00120509C29153
:1002D6007F647E00120509D2918010C290D2917B74
:1002E600FF7A047922E4FDFF1203AF852E99309937
:0302F600FDC299AD
:0102F90022E2
:1002FA00E4F52F7F901204E78F2FE52FD39428403F
:10030A003A7BFF7A0379F3E4FDFF1203AF7BFF7AAE
:10031A0004791A7D01E4FF1203AFD290C2917F647F
:10032A007E00120509D2917F647E00120509C291EE
:10033A007F647E00120509D2918010C290D2917B0F
:10034A00FF7A047922E4FDFF1203AF852F993099D1
:03035A00FDC29948
:01035D00227D
:1005EB001206351201641201CE1202321202960269
:0205FB0002FA02
:030000000200D823
:0C00D800787FE4F6D8FD75813002011F2E
:10059400BB010689828A83E0225002E722BBFE0265
:0905A400E32289828A83E4932298
:1000E4000205D9E493A3F8E493A34003F68001F254
:1000F40008DFF48029E493A3F85407240CC8C3331D
:10010400C4540F4420C8834004F456800146F6DFEB
:10011400E4800B010204081020408090060EE47E67
:10012400019360BCA3FF543F30E509541FFEE493E0
:10013400A360010ECF54C025E060A840B8E493A3A7
:10014400FAE493A3F8E493A3C8C582C8CAC583CAD2
:10015400F0A3C8C582C8CAC583CADFE9DEE780BE8A
:01061D0000DC
:00000001FF
